{
  "contractName": "Rules",
  "abi": [
    {
      "inputs": [
        {
          "internalType": "string",
          "name": "_name",
          "type": "string"
        },
        {
          "internalType": "string",
          "name": "_premise",
          "type": "string"
        },
        {
          "internalType": "string",
          "name": "_test_case",
          "type": "string"
        },
        {
          "internalType": "string",
          "name": "_action",
          "type": "string"
        }
      ],
      "payable": false,
      "stateMutability": "nonpayable",
      "type": "constructor"
    },
    {
      "constant": true,
      "inputs": [],
      "name": "action",
      "outputs": [
        {
          "internalType": "string",
          "name": "",
          "type": "string"
        }
      ],
      "payable": false,
      "stateMutability": "view",
      "type": "function"
    },
    {
      "constant": true,
      "inputs": [],
      "name": "approvals",
      "outputs": [
        {
          "internalType": "uint256",
          "name": "",
          "type": "uint256"
        }
      ],
      "payable": false,
      "stateMutability": "view",
      "type": "function"
    },
    {
      "constant": true,
      "inputs": [],
      "name": "denies",
      "outputs": [
        {
          "internalType": "uint256",
          "name": "",
          "type": "uint256"
        }
      ],
      "payable": false,
      "stateMutability": "view",
      "type": "function"
    },
    {
      "constant": true,
      "inputs": [],
      "name": "name",
      "outputs": [
        {
          "internalType": "string",
          "name": "",
          "type": "string"
        }
      ],
      "payable": false,
      "stateMutability": "view",
      "type": "function"
    },
    {
      "constant": true,
      "inputs": [],
      "name": "premise",
      "outputs": [
        {
          "internalType": "string",
          "name": "",
          "type": "string"
        }
      ],
      "payable": false,
      "stateMutability": "view",
      "type": "function"
    },
    {
      "constant": true,
      "inputs": [],
      "name": "test_case",
      "outputs": [
        {
          "internalType": "string",
          "name": "",
          "type": "string"
        }
      ],
      "payable": false,
      "stateMutability": "view",
      "type": "function"
    },
    {
      "constant": false,
      "inputs": [],
      "name": "incrementAprovals",
      "outputs": [],
      "payable": false,
      "stateMutability": "nonpayable",
      "type": "function"
    },
    {
      "constant": false,
      "inputs": [],
      "name": "decrementApprovals",
      "outputs": [],
      "payable": false,
      "stateMutability": "nonpayable",
      "type": "function"
    },
    {
      "constant": false,
      "inputs": [],
      "name": "incrementDenies",
      "outputs": [],
      "payable": false,
      "stateMutability": "nonpayable",
      "type": "function"
    },
    {
      "constant": false,
      "inputs": [],
      "name": "decrementDenies",
      "outputs": [],
      "payable": false,
      "stateMutability": "nonpayable",
      "type": "function"
    },
    {
      "constant": true,
      "inputs": [],
      "name": "getRule",
      "outputs": [
        {
          "internalType": "string",
          "name": "",
          "type": "string"
        },
        {
          "internalType": "string",
          "name": "",
          "type": "string"
        },
        {
          "internalType": "string",
          "name": "",
          "type": "string"
        },
        {
          "internalType": "string",
          "name": "",
          "type": "string"
        },
        {
          "internalType": "uint256",
          "name": "",
          "type": "uint256"
        },
        {
          "internalType": "uint256",
          "name": "",
          "type": "uint256"
        }
      ],
      "payable": false,
      "stateMutability": "view",
      "type": "function"
    }
  ],
  "bytecode": "0x60806040523480156200001157600080fd5b5060405162000f0038038062000f00833981810160405260808110156200003757600080fd5b81019080805160405193929190846401000000008211156200005857600080fd5b838201915060208201858111156200006f57600080fd5b82518660018202830111640100000000821117156200008d57600080fd5b8083526020830192505050908051906020019080838360005b83811015620000c3578082015181840152602081019050620000a6565b50505050905090810190601f168015620000f15780820380516001836020036101000a031916815260200191505b50604052602001805160405193929190846401000000008211156200011557600080fd5b838201915060208201858111156200012c57600080fd5b82518660018202830111640100000000821117156200014a57600080fd5b8083526020830192505050908051906020019080838360005b838110156200018057808201518184015260208101905062000163565b50505050905090810190601f168015620001ae5780820380516001836020036101000a031916815260200191505b5060405260200180516040519392919084640100000000821115620001d257600080fd5b83820191506020820185811115620001e957600080fd5b82518660018202830111640100000000821117156200020757600080fd5b8083526020830192505050908051906020019080838360005b838110156200023d57808201518184015260208101905062000220565b50505050905090810190601f1680156200026b5780820380516001836020036101000a031916815260200191505b50604052602001805160405193929190846401000000008211156200028f57600080fd5b83820191506020820185811115620002a657600080fd5b8251866001820283011164010000000082111715620002c457600080fd5b8083526020830192505050908051906020019080838360005b83811015620002fa578082015181840152602081019050620002dd565b50505050905090810190601f168015620003285780820380516001836020036101000a031916815260200191505b50604052505050600080819055506000600181905550836002908051906020019062000356929190620003ac565b5082600390805190602001906200036f929190620003ac565b50816004908051906020019062000388929190620003ac565b508060059080519060200190620003a1929190620003ac565b50505050506200045b565b828054600181600116156101000203166002900490600052602060002090601f016020900481019282601f10620003ef57805160ff191683800117855562000420565b8280016001018555821562000420579182015b828111156200041f57825182559160200191906001019062000402565b5b5090506200042f919062000433565b5090565b6200045891905b80821115620004545760008160009055506001016200043a565b5090565b90565b610a95806200046b6000396000f3fe608060405234801561001057600080fd5b50600436106100a95760003560e01c8063a411f1c711610071578063a411f1c7146101e6578063a55d5395146101f0578063b05dba9614610273578063b78ba7c814610291578063e969dbc814610466578063f542ffbe14610470576100a9565b806306fdde03146100ae5780630a7a1c4d146101315780638af0e4ed146101b45780638c8ab446146101d25780639349c75a146101dc575b600080fd5b6100b66104f3565b6040518080602001828103825283818151815260200191508051906020019080838360005b838110156100f65780820151818401526020810190506100db565b50505050905090810190601f1680156101235780820380516001836020036101000a031916815260200191505b509250505060405180910390f35b610139610591565b6040518080602001828103825283818151815260200191508051906020019080838360005b8381101561017957808201518184015260208101905061015e565b50505050905090810190601f1680156101a65780820380516001836020036101000a031916815260200191505b509250505060405180910390f35b6101bc61062f565b6040518082815260200191505060405180910390f35b6101da610635565b005b6101e4610649565b005b6101ee61065c565b005b6101f8610670565b6040518080602001828103825283818151815260200191508051906020019080838360005b8381101561023857808201518184015260208101905061021d565b50505050905090810190601f1680156102655780820380516001836020036101000a031916815260200191505b509250505060405180910390f35b61027b61070e565b6040518082815260200191505060405180910390f35b610299610714565b604051808060200180602001806020018060200187815260200186815260200185810385528b818151815260200191508051906020019080838360005b838110156102f15780820151818401526020810190506102d6565b50505050905090810190601f16801561031e5780820380516001836020036101000a031916815260200191505b5085810384528a818151815260200191508051906020019080838360005b8381101561035757808201518184015260208101905061033c565b50505050905090810190601f1680156103845780820380516001836020036101000a031916815260200191505b50858103835289818151815260200191508051906020019080838360005b838110156103bd5780820151818401526020810190506103a2565b50505050905090810190601f1680156103ea5780820380516001836020036101000a031916815260200191505b50858103825288818151815260200191508051906020019080838360005b83811015610423578082015181840152602081019050610408565b50505050905090810190601f1680156104505780820380516001836020036101000a031916815260200191505b509a505050505050505050505060405180910390f35b61046e6109af565b005b6104786109c2565b6040518080602001828103825283818151815260200191508051906020019080838360005b838110156104b857808201518184015260208101905061049d565b50505050905090810190601f1680156104e55780820380516001836020036101000a031916815260200191505b509250505060405180910390f35b60028054600181600116156101000203166002900480601f0160208091040260200160405190810160405280929190818152602001828054600181600116156101000203166002900480156105895780601f1061055e57610100808354040283529160200191610589565b820191906000526020600020905b81548152906001019060200180831161056c57829003601f168201915b505050505081565b60058054600181600116156101000203166002900480601f0160208091040260200160405190810160405280929190818152602001828054600181600116156101000203166002900480156106275780601f106105fc57610100808354040283529160200191610627565b820191906000526020600020905b81548152906001019060200180831161060a57829003601f168201915b505050505081565b60015481565b600080815480929190600190039190505550565b6000808154809291906001019190505550565b600080815480929190600190039190505550565b60048054600181600116156101000203166002900480601f0160208091040260200160405190810160405280929190818152602001828054600181600116156101000203166002900480156107065780601f106106db57610100808354040283529160200191610706565b820191906000526020600020905b8154815290600101906020018083116106e957829003601f168201915b505050505081565b60005481565b6060806060806000806002600360046005600054600154858054600181600116156101000203166002900480601f0160208091040260200160405190810160405280929190818152602001828054600181600116156101000203166002900480156107c05780601f10610795576101008083540402835291602001916107c0565b820191906000526020600020905b8154815290600101906020018083116107a357829003601f168201915b50505050509550848054600181600116156101000203166002900480601f01602080910402602001604051908101604052809291908181526020018280546001816001161561010002031660029004801561085c5780601f106108315761010080835404028352916020019161085c565b820191906000526020600020905b81548152906001019060200180831161083f57829003601f168201915b50505050509450838054600181600116156101000203166002900480601f0160208091040260200160405190810160405280929190818152602001828054600181600116156101000203166002900480156108f85780601f106108cd576101008083540402835291602001916108f8565b820191906000526020600020905b8154815290600101906020018083116108db57829003601f168201915b50505050509350828054600181600116156101000203166002900480601f0160208091040260200160405190810160405280929190818152602001828054600181600116156101000203166002900480156109945780601f1061096957610100808354040283529160200191610994565b820191906000526020600020905b81548152906001019060200180831161097757829003601f168201915b50505050509250955095509550955095509550909192939495565b6000808154809291906001019190505550565b60038054600181600116156101000203166002900480601f016020809104026020016040519081016040528092919081815260200182805460018160011615610100020316600290048015610a585780601f10610a2d57610100808354040283529160200191610a58565b820191906000526020600020905b815481529060010190602001808311610a3b57829003601f168201915b50505050508156fea265627a7a7231582017edbb4c01dc6da8d106f04169a2e9de1dabb97473bb2587e9d26450029aae1664736f6c63430005100032",
  "source": "// SPDX-License-Identifier: MIT\npragma solidity >=0.4.21 <0.7.0;\n\ncontract Rules {\n    // Create a variable to store our count, set it to public to have the compiler create a getter. Will initiall be set to 0\n    uint256 public approvals;\n    uint256 public denies;\n    string public name;\n    string public premise;\n    string public test_case;\n    string public action;\n\n    // Constructor does not live on chain, can only be called once on deploy\n    constructor(\n        string memory _name,\n        string memory _premise,\n        string memory _test_case,\n        string memory _action\n    ) public {\n        approvals = 0;\n        denies = 0;\n        name = _name;\n        premise = _premise;\n        test_case = _test_case;\n        action = _action;\n    }\n\n    function incrementAprovals() external {\n        approvals++;\n    }\n\n    function decrementApprovals() external {\n        approvals--;\n    }\n\n    function incrementDenies() external {\n        approvals++;\n    }\n\n    function decrementDenies() external {\n        approvals--;\n    }\n\n    function getRule()\n        public\n        view\n        returns (\n            string memory,\n            string memory,\n            string memory,\n            string memory,\n            uint256,\n            uint256\n        )\n    {\n        return (name, premise, test_case, action, approvals, denies);\n    }\n}\n",
  "sourcePath": "/Users/rafael/Documents/GitHub/ethereum-docker/contracts/Rules.sol",
  "compiler": {
    "name": "solc",
    "version": "0.5.16+commit.9c3226ce.Emscripten.clang"
  },
  "schemaVersion": "3.2.3",
  "updatedAt": "2020-07-25T22:20:16.431Z",
  "networkType": "ethereum",
  "devdoc": {
    "methods": {}
  },
  "userdoc": {
    "methods": {}
  }
}